:100000000C945D000C9485000C9485000C94850084
:100010000C9485000C9485000C9485000C9485004C
:100020000C9485000C9406020C9485000C948500B9
:100030000C9485000C9436010C9485000C9485007A
:100040000C9430020C9485000C94EF040C94210560
:100050000C9485000C9485000C9485000C9485000C
:100060000C9485000C94850000000008000201003B
:100070000003040700000000000000000102040863
:100080001020408001020408102001020408102002
:10009000040404040404040402020202020203032E
:1000A0000303030300000000250028002B000000CC
:1000B0000000240027002A00510511241FBECFEFA5
:1000C000D8E0DEBFCDBF11E0A0E0B1E0E4E3F2E1B3
:1000D00002C005900D92AE31B107D9F721E0AEE133
:1000E000B1E001C01D92AA3DB207E1F710E0CAEBF2
:1000F000D0E004C02297FE010E94D306C83BD1077E
:10010000C9F70E949F060C9418090C9400000F93E5
:100110001F93CF93DF9326E040E051EE60E070E064
:1001200089E391E00E948D0461E08DE00E943B0331
:1001300061E089E00E943B0361E088E00E943B03AC
:1001400061E088E00E947403C1E8D0E080E1888328
:1001500000E810E0F801108281E08093200180EA3D
:1001600090E09093220180932101909387008093E7
:10017000860081E1888361E089E00E943B03F80109
:100180008081806880838091210190912201A0E08C
:10019000B0E022E0B695A795979587952A95D1F777
:1001A00090938900809388008091200180618883EA
:1001B00047EE50E064EF71E080E090E00E945D0166
:1001C000DF91CF911F910F910C94A5010895CF93CA
:1001D000DF9300D000D000D0CDB7DEB76CE071E087
:1001E000CE0101960E942A0689E391E00E94AA03AB
:1001F0001816190684F489E391E00E94C303682F5E
:10020000CE0101960E946C0662E070E080E090E012
:100210000E949D02E9CF66E071E0CE0101960E9446
:100220007F068823B1F061E087E00E943B0361E034
:1002300087E00E94740360E087E00E94740362E339
:1002400070E080E090E00E949D0261E087E00E9403
:100250007403CE0101960E94BC0526960FB6F89451
:10026000DEBF0FBECDBFDF91CF9108951F920F92D9
:100270000FB60F9211242F933F934F935F936F9379
:100280007F938F939F93AF93BF93EF93FF93E091EF
:100290001E01F0911F010995FF91EF91BF91AF9160
:1002A0009F918F917F916F915F914F913F912F918E
:1002B0000F900FBE0F901F90189561157105810565
:1002C000910569F481E090E0A0E0B0E080932C011A
:1002D00090932D01A0932E01B0932F0108C060933D
:1002E0002C0170932D0180932E0190932F01509338
:1002F0002B0140932A01809170008E7F80937000C3
:100300008091B0008C7F8093B0008091B100877F96
:100310008093B1008091B6008F7D8093B60080916C
:1003200070008D7F809370008091B1008460809315
:10033000B1008091B1008C7F8093B10086E090E0A5
:100340009093240180932301089510922601109226
:100350002701109228011092290110922501809105
:100360002301909124018093B200E0E7F0E08081C6
:100370008160808308958091260190912701A0914A
:100380002801B09129010196A11DB11D809326017C
:1003900090932701A0932801B09329018091260111
:1003A00090912701A0912801B091290140912C0141
:1003B00050912D0160912E0170912F0184179507A6
:1003C000A607B70710F18091250181111EC081E0B9
:1003D000809325018091260190912701A091280109
:1003E000B0912901841B950BA60BB70B80932601B6
:1003F00090932701A0932801B0932901E0912A014D
:10040000F0912B0109951092250108951F920F92EA
:100410000FB60F9211242F933F934F935F936F93D7
:100420007F938F939F93AF93BF93EF93FF938091AD
:100430002301909124018093B2000E94BB01FF919F
:10044000EF91BF91AF919F918F917F916F915F914C
:100450004F913F912F910F900FBE0F901F901895C5
:100460001F920F920FB60F9211242F933F938F93E9
:100470009F93AF93BF938091310190913201A091EE
:100480003301B09134013091300123E0230F2D3737
:1004900020F40196A11DB11D05C026E8230F029688
:1004A000A11DB11D20933001809331019093320141
:1004B000A0933301B09334018091350190913601BE
:1004C000A0913701B09138010196A11DB11D809313
:1004D000350190933601A0933701B0933801BF9155
:1004E000AF919F918F913F912F910F900FBE0F90E1
:1004F0001F9018953FB7F89480913501909136017F
:10050000A0913701B091380126B5A89B05C02F3FB7
:1005100019F00196A11DB11D3FBF6627782F892FC5
:100520009A2F620F711D811D911D42E0660F771F8A
:10053000881F991F4A95D1F708958F929F92AF9285
:10054000BF92CF92DF92EF92FF926B017C010E94EB
:100550007A024B015C01C114D104E104F104F1F011
:100560000E94AE060E947A02681979098A099B09DD
:10057000683E73408105910570F321E0C21AD108ED
:10058000E108F10888EE880E83E0981EA11CB11CDA
:10059000C114D104E104F10429F7DDCFFF90EF90FD
:1005A000DF90CF90BF90AF909F908F9008957894F8
:1005B00084B5826084BD84B5816084BD85B5826068
:1005C00085BD85B5816085BDEEE6F0E08081816006
:1005D0008083E1E8F0E01082808182608083808106
:1005E00081608083E0E8F0E0808181608083E1EBDE
:1005F000F0E0808184608083E0EBF0E080818160C6
:100600008083EAE7F0E0808184608083808182607B
:100610008083808181608083808180688083109264
:10062000C1000895833081F028F4813099F0823040
:10063000A1F008958730A9F08830B9F08430D1F462
:10064000809180008F7D03C0809180008F778093A0
:100650008000089584B58F7702C084B58F7D84BDF6
:1006600008958091B0008F7703C08091B0008F7D96
:100670008093B0000895CF93DF9390E0FC01E4589D
:10068000FF4F2491FC01E057FF4F8491882349F1EB
:1006900090E0880F991FFC01E255FF4FA591B4919E
:1006A0008C559F4FFC01C591D4919FB7611108C033
:1006B000F8948C91209582238C93888182230AC0A0
:1006C000623051F4F8948C91322F309583238C93BF
:1006D0008881822B888304C0F8948C91822B8C9320
:1006E0009FBFDF91CF9108950F931F93CF93DF9317
:1006F0001F92CDB7DEB7282F30E0F901E859FF4F40
:100700008491F901E458FF4F1491F901E057FF4F2C
:1007100004910023C9F0882321F069830E94120309
:100720006981E02FF0E0EE0FFF1FEC55FF4FA59120
:10073000B4919FB7F8948C91611103C010958123F7
:1007400001C0812B8C939FBF0F90DF91CF911F91A0
:100750000F910895FC01818D228D90E0805C9F4F68
:10076000821B91098F7399270895FC01918D828DC9
:10077000981731F0828DE80FF11D858D90E0089576
:100780008FEF9FEF0895FC01918D828D981761F096
:10079000828DDF01A80FB11D5D968C91928D9F5FB8
:1007A0009F73928F90E008958FEF9FEF089587E4F5
:1007B00095E0892B49F080E090E0892B29F00E9498
:1007C000470581110C9400000895FC01848DDF0120
:1007D000A80FB11DA35ABF4F2C91848D90E00196B4
:1007E0008F739927848FA689B7892C93A089B189A3
:1007F0008C9180648C93938D848D981306C00288AD
:10080000F389E02D80818F7D80830895CF93DF93DE
:10081000EC01888D8823C9F0EA89FB89808185FDF8
:1008200005C0A889B9898C9186FD0FC00FB607FC59
:10083000F5CF808185FFF2CFA889B9898C9185FF9A
:10084000EDCFCE010E94E503E7CFDF91CF91089570
:10085000CF92DF92FF920F931F93CF93DF931F925C
:10086000CDB7DEB76C0181E0D60158968C935897CE
:100870005B969C915B975C968C915C97981307C0F4
:100880005096ED91FC915197808185FD2EC0F60127
:10089000038D10E00F5F1F4F0F731127F02EF6012D
:1008A000848DF81211C00FB607FCF9CFD60150960F
:1008B000ED91FC915197808185FFF1CFC60169834D
:1008C0000E94E5036981EBCF838DE80FF11DE35AA8
:1008D000FF4F6083D6015B960C935B975296ED9128
:1008E000FC915397808180620CC0D6015696ED91A1
:1008F000FC91579760835096ED91FC9151978081C0
:100900008064808381E090E00F90DF91CF911F9110
:100910000F91FF90DF90CF900895BF92CF92DF921A
:10092000EF92FF92CF93DF93EC016A017B01B22E2D
:10093000E889F98982E08083411581EE58076105D5
:100940007105A1F060E079E08DE390E0A7019601E8
:100950000E94AF062150310941095109569547952A
:1009600037952795211580E1380798F0E889F989AE
:10097000108260E874E88EE190E0A70196010E9481
:10098000AF062150310941095109569547953795D0
:100990002795EC85FD853083EE85FF852083188EB5
:1009A000EC89FD89B082EA89FB898081806180833E
:1009B000EA89FB89808188608083EA89FB8980815C
:1009C00080688083EA89FB8980818F7D8083DF91C5
:1009D000CF91FF90EF90DF90CF90BF9008951F923E
:1009E0000F920FB60F9211242F938F939F93EF9333
:1009F000FF93E0914901F0914A018081E0914F011C
:100A0000F091500182FD12C09081809152018F5F60
:100A10008F7320915301821751F0E0915201F0E061
:100A2000E75CFE4F958F8093520101C08081FF915A
:100A3000EF919F918F912F910F900FBE0F901F906C
:100A400018951F920F920FB60F9211242F933F9378
:100A50004F935F936F937F938F939F93AF93BF93C6
:100A6000EF93FF9389E391E00E94E503FF91EF91FB
:100A7000BF91AF919F918F917F916F915F914F91B6
:100A80003F912F910F900FBE0F901F90189589E303
:100A900091E00E94AA0321E0892B09F420E0822F33
:100AA000089510923C0110923B0188EE93E0A0E083
:100AB000B0E080933D0190933E01A0933F01B0933D
:100AC000400181E191E090933A018093390185ECF6
:100AD00090E0909346018093450184EC90E09093E0
:100AE00048018093470180EC90E090934A01809305
:100AF000490181EC90E090934C0180934B0182EC92
:100B000090E090934E0180934D0186EC90E090939D
:100B1000500180934F011092520110925301109294
:100B20005401109255010895CF92DF92EF92FF92F7
:100B30000F931F93CF93DF937C016A01EB0100E0D9
:100B400010E00C151D0571F06991D701ED91FC9134
:100B50000190F081E02DC7010995892B19F00F5FF5
:100B60001F4FEFCFC801DF91CF911F910F91FF90E1
:100B7000EF90DF90CF900895FC01808191810C94DB
:100B80006F07CF93DF93EC0188819981009711F073
:100B90000E946F07198218821D821C821B821A8292
:100BA000DF91CF9108950F931F93CF93DF93EC01C3
:100BB0008B016F5F7F4F888199810E94FE070097AC
:100BC00031F0998388831B830A8381E001C080E030
:100BD000DF91CF911F910F910895CF93DF93EC0197
:100BE00088819981892B29F08A819B8186179707B3
:100BF00060F4CE010E94D305882341F08C819D8151
:100C0000892B19F4E881F981108281E0DF91CF917D
:100C10000895EF92FF920F931F93CF93DF93EC0110
:100C20007B018A01BA010E94ED05811104C0CE0149
:100C30000E94C10507C01D830C83B701888199817B
:100C40000E94DA08CE01DF91CF911F910F91FF90A2
:100C5000EF900895FC011182108213821282158296
:100C600014826115710559F0FB0101900020E9F72C
:100C7000AF0141505109461B570B0C9409060895CA
:100C8000EF92FF920F931F93CF93DF93EC017B01C1
:100C90000C811D816115710511F480E016C04115AC
:100CA000510591F0040F151FB8010E94ED0588232E
:100CB000A1F3288139818C819D81B701820F931F17
:100CC0000E94DA081D830C8381E0DF91CF911F9190
:100CD0000F91FF90EF900895CF93DF9300D0CDB7A1
:100CE000DEB769831A8241E050E0BE016F5F7F4F3B
:100CF0000E9440060F900F90DF91CF910895FC0164
:100D000024813581232B31F421E061157105A1F097
:100D1000FB0108C0FC01808191816115710531F4EE
:100D200021E0FC018081882339F005C00E94D108B0
:100D300021E0892B09F020E0822F089508950E9478
:100D4000D7020E949E060E948700C7EDD3E00E9452
:100D5000E6002097E1F30E94D703F9CF0895A1E2BE
:100D60001A2EAA1BBB1BFD010DC0AA1FBB1FEE1F25
:100D7000FF1FA217B307E407F50720F0A21BB30B70
:100D8000E40BF50B661F771F881F991F1A9469F7EC
:100D900060957095809590959B01AC01BD01CF0148
:100DA0000895EE0FFF1F0590F491E02D0994CF9365
:100DB000DF938230910510F482E090E0E091D80159
:100DC000F091D90120E030E0A0E0B0E0309739F1B7
:100DD0004081518148175907B8F04817590771F4F5
:100DE00082819381109729F013969C938E9312978A
:100DF0002CC09093D9018093D80127C021153105CB
:100E000031F04217530718F0A901DB0101C0EF01CF
:100E10009A01BD01DF010280F381E02DD7CF2115BA
:100E20003105F9F0281B390B2430310580F48A8113
:100E30009B816115710521F0FB019383828304C0BE
:100E40009093D9018093D801FE01329644C0FE01EF
:100E5000E20FF31F81939193225031093983288344
:100E60003AC02091D6013091D701232B41F4209133
:100E70000201309103013093D7012093D6012091D4
:100E80000001309101012115310541F42DB73EB724
:100E90004091040150910501241B350BE091D601CE
:100EA000F091D701E217F307A0F42E1B3F0B281790
:100EB000390778F0AC014E5F5F4F2417350748F0D3
:100EC0004E0F5F1F5093D7014093D60181939193AA
:100ED00002C0E0E0F0E0CF01DF91CF910895CF9321
:100EE000DF93009709F487C0FC01329713821282C6
:100EF000C091D801D091D901209781F4208131810E
:100F0000280F391F8091D6019091D701821793073E
:100F100079F5F093D701E093D6016DC0DE0120E0B2
:100F200030E0AE17BF0750F412964D915C911397C5
:100F30009D014115510509F1DA01F3CFB383A28375
:100F400040815181840F951F8A179B0771F48D9101
:100F50009C911197840F951F02969183808312961E
:100F60008D919C911397938382832115310529F4E8
:100F7000F093D901E093D8013EC0D9011396FC93B8
:100F8000EE9312974D915D91A40FB51FEA17FB07E1
:100F900079F480819181840F951F0296D901119671
:100FA0009C938E938281938113969C938E93129738
:100FB000E0E0F0E08A819B81009719F0FE01EC01EE
:100FC000F9CFCE01029628813981820F931F20919B
:100FD000D6013091D7012817390769F4309729F4E1
:100FE0001092D9011092D80102C013821282D093BC
:100FF000D701C093D601DF91CF910895A0E0B0E072
:10100000E4E0F8E00C94E508EC01CB01209719F43A
:101010000E94D706B8C0FE01E60FF71F9E012250BE
:101020003109E217F30708F4ACC0D9010D911C9106
:10103000119706171707B8F00530110508F49FC07F
:10104000A801445051094617570708F498C00250A8
:101050001109061B170B019311936D937C93CF011C
:101060000E946F078CC05B01A01AB10A4E01800E6E
:10107000911EA091D801B091D901612C712C60E032
:1010800070E0109709F449C0A815B905C9F5ED90AD
:10109000FC901197670142E0C40ED11CCA14DB0416
:1010A00078F147018A189B08640142E0C40ED11C04
:1010B0001296BC9012971396AC91B5E0CB16D10462
:1010C00040F0B282A38391828082D9018D939C9358
:1010D00009C00E5F1F4F0E0D1F1DF9011183008304
:1010E000EB2DFA2F6115710531F0DB011396FC939E
:1010F000EE93129744C0F093D901E093D8013FC01A
:101100006D917C9111976616770608F43B01BD013D
:1011100012960D90BC91A02DB4CF6091D601709124
:10112000D70168157905E9F468167906D0F440917D
:101130000001509101014115510541F44DB75EB7D1
:101140006091040170910501461B570BE417F507E8
:10115000C0F4F093D701E093D601F9019183808325
: